{
  "_format": "hh-sol-artifact-1",
  "contractName": "OpenBudgetDAO",
  "sourceName": "contracts/OpenBudgetDAO.sol",
  "abi": [
    {
      "inputs": [
        {
          "internalType": "address",
          "name": "_token",
          "type": "address"
        },
        {
          "internalType": "uint256",
          "name": "_votingPeriod",
          "type": "uint256"
        },
        {
          "internalType": "uint256",
          "name": "_quorum",
          "type": "uint256"
        }
      ],
      "stateMutability": "nonpayable",
      "type": "constructor"
    },
    {
      "anonymous": false,
      "inputs": [
        {
          "indexed": true,
          "internalType": "uint256",
          "name": "id",
          "type": "uint256"
        },
        {
          "indexed": false,
          "internalType": "string",
          "name": "title",
          "type": "string"
        },
        {
          "indexed": false,
          "internalType": "uint256",
          "name": "amount",
          "type": "uint256"
        }
      ],
      "name": "ProposalCreated",
      "type": "event"
    },
    {
      "anonymous": false,
      "inputs": [
        {
          "indexed": true,
          "internalType": "uint256",
          "name": "id",
          "type": "uint256"
        }
      ],
      "name": "ProposalExecuted",
      "type": "event"
    },
    {
      "anonymous": false,
      "inputs": [
        {
          "indexed": true,
          "internalType": "bytes32",
          "name": "role",
          "type": "bytes32"
        },
        {
          "indexed": true,
          "internalType": "bytes32",
          "name": "previousAdminRole",
          "type": "bytes32"
        },
        {
          "indexed": true,
          "internalType": "bytes32",
          "name": "newAdminRole",
          "type": "bytes32"
        }
      ],
      "name": "RoleAdminChanged",
      "type": "event"
    },
    {
      "anonymous": false,
      "inputs": [
        {
          "indexed": true,
          "internalType": "bytes32",
          "name": "role",
          "type": "bytes32"
        },
        {
          "indexed": true,
          "internalType": "address",
          "name": "account",
          "type": "address"
        },
        {
          "indexed": true,
          "internalType": "address",
          "name": "sender",
          "type": "address"
        }
      ],
      "name": "RoleGranted",
      "type": "event"
    },
    {
      "anonymous": false,
      "inputs": [
        {
          "indexed": true,
          "internalType": "bytes32",
          "name": "role",
          "type": "bytes32"
        },
        {
          "indexed": true,
          "internalType": "address",
          "name": "account",
          "type": "address"
        },
        {
          "indexed": true,
          "internalType": "address",
          "name": "sender",
          "type": "address"
        }
      ],
      "name": "RoleRevoked",
      "type": "event"
    },
    {
      "anonymous": false,
      "inputs": [
        {
          "indexed": true,
          "internalType": "uint256",
          "name": "proposalId",
          "type": "uint256"
        },
        {
          "indexed": true,
          "internalType": "address",
          "name": "voter",
          "type": "address"
        },
        {
          "indexed": false,
          "internalType": "bool",
          "name": "support",
          "type": "bool"
        }
      ],
      "name": "Voted",
      "type": "event"
    },
    {
      "inputs": [],
      "name": "ADMIN_ROLE",
      "outputs": [
        {
          "internalType": "bytes32",
          "name": "",
          "type": "bytes32"
        }
      ],
      "stateMutability": "view",
      "type": "function"
    },
    {
      "inputs": [],
      "name": "DEFAULT_ADMIN_ROLE",
      "outputs": [
        {
          "internalType": "bytes32",
          "name": "",
          "type": "bytes32"
        }
      ],
      "stateMutability": "view",
      "type": "function"
    },
    {
      "inputs": [],
      "name": "MEMBER_ROLE",
      "outputs": [
        {
          "internalType": "bytes32",
          "name": "",
          "type": "bytes32"
        }
      ],
      "stateMutability": "view",
      "type": "function"
    },
    {
      "inputs": [
        {
          "internalType": "address",
          "name": "_member",
          "type": "address"
        }
      ],
      "name": "addMember",
      "outputs": [],
      "stateMutability": "nonpayable",
      "type": "function"
    },
    {
      "inputs": [
        {
          "internalType": "string",
          "name": "_title",
          "type": "string"
        },
        {
          "internalType": "string",
          "name": "_description",
          "type": "string"
        },
        {
          "internalType": "uint256",
          "name": "_amount",
          "type": "uint256"
        },
        {
          "internalType": "address",
          "name": "_recipient",
          "type": "address"
        }
      ],
      "name": "createProposal",
      "outputs": [],
      "stateMutability": "nonpayable",
      "type": "function"
    },
    {
      "inputs": [
        {
          "internalType": "uint256",
          "name": "_proposalId",
          "type": "uint256"
        }
      ],
      "name": "executeProposal",
      "outputs": [],
      "stateMutability": "nonpayable",
      "type": "function"
    },
    {
      "inputs": [
        {
          "internalType": "bytes32",
          "name": "role",
          "type": "bytes32"
        }
      ],
      "name": "getRoleAdmin",
      "outputs": [
        {
          "internalType": "bytes32",
          "name": "",
          "type": "bytes32"
        }
      ],
      "stateMutability": "view",
      "type": "function"
    },
    {
      "inputs": [
        {
          "internalType": "bytes32",
          "name": "role",
          "type": "bytes32"
        },
        {
          "internalType": "address",
          "name": "account",
          "type": "address"
        }
      ],
      "name": "grantRole",
      "outputs": [],
      "stateMutability": "nonpayable",
      "type": "function"
    },
    {
      "inputs": [
        {
          "internalType": "bytes32",
          "name": "role",
          "type": "bytes32"
        },
        {
          "internalType": "address",
          "name": "account",
          "type": "address"
        }
      ],
      "name": "hasRole",
      "outputs": [
        {
          "internalType": "bool",
          "name": "",
          "type": "bool"
        }
      ],
      "stateMutability": "view",
      "type": "function"
    },
    {
      "inputs": [],
      "name": "proposalCount",
      "outputs": [
        {
          "internalType": "uint256",
          "name": "",
          "type": "uint256"
        }
      ],
      "stateMutability": "view",
      "type": "function"
    },
    {
      "inputs": [
        {
          "internalType": "uint256",
          "name": "",
          "type": "uint256"
        }
      ],
      "name": "proposals",
      "outputs": [
        {
          "internalType": "uint256",
          "name": "id",
          "type": "uint256"
        },
        {
          "internalType": "string",
          "name": "title",
          "type": "string"
        },
        {
          "internalType": "string",
          "name": "description",
          "type": "string"
        },
        {
          "internalType": "uint256",
          "name": "amount",
          "type": "uint256"
        },
        {
          "internalType": "address",
          "name": "recipient",
          "type": "address"
        },
        {
          "internalType": "uint256",
          "name": "votesFor",
          "type": "uint256"
        },
        {
          "internalType": "uint256",
          "name": "votesAgainst",
          "type": "uint256"
        },
        {
          "internalType": "uint256",
          "name": "deadline",
          "type": "uint256"
        },
        {
          "internalType": "bool",
          "name": "executed",
          "type": "bool"
        }
      ],
      "stateMutability": "view",
      "type": "function"
    },
    {
      "inputs": [],
      "name": "quorum",
      "outputs": [
        {
          "internalType": "uint256",
          "name": "",
          "type": "uint256"
        }
      ],
      "stateMutability": "view",
      "type": "function"
    },
    {
      "inputs": [
        {
          "internalType": "address",
          "name": "_member",
          "type": "address"
        }
      ],
      "name": "removeMember",
      "outputs": [],
      "stateMutability": "nonpayable",
      "type": "function"
    },
    {
      "inputs": [
        {
          "internalType": "bytes32",
          "name": "role",
          "type": "bytes32"
        },
        {
          "internalType": "address",
          "name": "account",
          "type": "address"
        }
      ],
      "name": "renounceRole",
      "outputs": [],
      "stateMutability": "nonpayable",
      "type": "function"
    },
    {
      "inputs": [
        {
          "internalType": "bytes32",
          "name": "role",
          "type": "bytes32"
        },
        {
          "internalType": "address",
          "name": "account",
          "type": "address"
        }
      ],
      "name": "revokeRole",
      "outputs": [],
      "stateMutability": "nonpayable",
      "type": "function"
    },
    {
      "inputs": [
        {
          "internalType": "bytes4",
          "name": "interfaceId",
          "type": "bytes4"
        }
      ],
      "name": "supportsInterface",
      "outputs": [
        {
          "internalType": "bool",
          "name": "",
          "type": "bool"
        }
      ],
      "stateMutability": "view",
      "type": "function"
    },
    {
      "inputs": [],
      "name": "token",
      "outputs": [
        {
          "internalType": "contract IERC20",
          "name": "",
          "type": "address"
        }
      ],
      "stateMutability": "view",
      "type": "function"
    },
    {
      "inputs": [
        {
          "internalType": "uint256",
          "name": "_proposalId",
          "type": "uint256"
        },
        {
          "internalType": "bool",
          "name": "_support",
          "type": "bool"
        }
      ],
      "name": "vote",
      "outputs": [],
      "stateMutability": "nonpayable",
      "type": "function"
    },
    {
      "inputs": [],
      "name": "votingPeriod",
      "outputs": [
        {
          "internalType": "uint256",
          "name": "",
          "type": "uint256"
        }
      ],
      "stateMutability": "view",
      "type": "function"
    }
  ],
  "bytecode": "0x60806040523480156200001157600080fd5b506040516200166d3803806200166d83398101604081905262000034916200014e565b60018055620000456000336200009e565b620000717fa49807205ce4d355092ef5a8a18f56e8913cf4a201fbe287825b095693c21775336200009e565b600680546001600160a01b0319166001600160a01b03949094169390931790925560045560055562000193565b620000aa8282620000ae565b5050565b6000828152602081815260408083206001600160a01b038516845290915290205460ff16620000aa576000828152602081815260408083206001600160a01b03851684529091529020805460ff191660011790556200010a3390565b6001600160a01b0316816001600160a01b0316837f2f8788117e7eff1d82e926ec794901d17c78024a50270940304540a733656f0d60405160405180910390a45050565b6000806000606084860312156200016457600080fd5b83516001600160a01b03811681146200017c57600080fd5b602085015160409095015190969495509392505050565b6114ca80620001a36000396000f3fe608060405234801561001057600080fd5b50600436106101215760003560e01c806375b238fc116100ad578063ca6d56dc11610071578063ca6d56dc14610275578063d547741f14610288578063da35c6641461029b578063e5ee89cc146102a4578063fc0c546a146102b757600080fd5b806375b238fc1461020b57806391d1485414610232578063a10f469e14610245578063a217fddf1461025a578063c9d27afe1461026257600080fd5b80630d61b519116100f45780630d61b519146101a65780631703a018146101b9578063248a9ca3146101c25780632f2ff15d146101e557806336568abe146101f857600080fd5b8063013cf08b1461012657806301ffc9a71461015757806302a251a31461017a5780630b1ca49a14610191575b600080fd5b610139610134366004610f03565b6102e2565b60405161014e99989796959493929190610f6c565b60405180910390f35b61016a610165366004610fda565b610449565b604051901515815260200161014e565b61018360045481565b60405190815260200161014e565b6101a461019f366004611020565b610480565b005b6101a46101b4366004610f03565b6104c6565b61018360055481565b6101836101d0366004610f03565b60009081526020819052604090206001015490565b6101a46101f336600461103b565b610731565b6101a461020636600461103b565b61075b565b6101837fa49807205ce4d355092ef5a8a18f56e8913cf4a201fbe287825b095693c2177581565b61016a61024036600461103b565b6107d5565b61018360008051602061147583398151915281565b610183600081565b6101a4610270366004611075565b6107fe565b6101a4610283366004611020565b610a69565b6101a461029636600461103b565b610aab565b61018360035481565b6101a46102b2366004611148565b610ad0565b6006546102ca906001600160a01b031681565b6040516001600160a01b03909116815260200161014e565b60026020526000908152604090208054600182018054919291610304906111c6565b80601f0160208091040260200160405190810160405280929190818152602001828054610330906111c6565b801561037d5780601f106103525761010080835404028352916020019161037d565b820191906000526020600020905b81548152906001019060200180831161036057829003601f168201915b505050505090806002018054610392906111c6565b80601f01602080910402602001604051908101604052809291908181526020018280546103be906111c6565b801561040b5780601f106103e05761010080835404028352916020019161040b565b820191906000526020600020905b8154815290600101906020018083116103ee57829003601f168201915b50505060038401546004850154600586015460068701546007880154600890980154969793966001600160a01b039093169550909350919060ff1689565b60006001600160e01b03198216637965db0b60e01b148061047a57506301ffc9a760e01b6001600160e01b03198316145b92915050565b7fa49807205ce4d355092ef5a8a18f56e8913cf4a201fbe287825b095693c217756104aa81610ba9565b6104c260008051602061147583398151915283610aab565b5050565b6104ce610bb3565b6000818152600260205260409020600781015442116105345760405162461bcd60e51b815260206004820152601760248201527f566f74696e6720706572696f64206e6f7420656e64656400000000000000000060448201526064015b60405180910390fd5b600881015460ff16156105855760405162461bcd60e51b8152602060048201526019602482015278141c9bdc1bdcd85b08185b1c9958591e48195e1958dd5d1959603a1b604482015260640161052b565b6005548160060154826005015461059c9190611216565b10156105df5760405162461bcd60e51b8152602060048201526012602482015271145d5bdc9d5b481b9bdd081c995858da195960721b604482015260640161052b565b806006015481600501541161062a5760405162461bcd60e51b8152602060048201526011602482015270141c9bdc1bdcd85b081c995a9958dd1959607a1b604482015260640161052b565b60088101805460ff19166001179055600654600480830154600384015460405163a9059cbb60e01b81526001600160a01b039283169381019390935260248301529091169063a9059cbb906044016020604051808303816000875af1158015610697573d6000803e3d6000fd5b505050506040513d601f19601f820116820180604052508101906106bb9190611229565b6106f95760405162461bcd60e51b815260206004820152600f60248201526e151c985b9cd9995c8819985a5b1959608a1b604482015260640161052b565b60405182907f712ae1383f79ac853f8d882153778e0260ef8f03b504e2866e0593e04d2b291f90600090a25061072e60018055565b50565b60008281526020819052604090206001015461074c81610ba9565b6107568383610c0c565b505050565b6001600160a01b03811633146107cb5760405162461bcd60e51b815260206004820152602f60248201527f416363657373436f6e74726f6c3a2063616e206f6e6c792072656e6f756e636560448201526e103937b632b9903337b91039b2b63360891b606482015260840161052b565b6104c28282610c90565b6000918252602082815260408084206001600160a01b0393909316845291905290205460ff1690565b60008051602061147583398151915261081681610ba9565b61081e610bb3565b600083815260026020526040902060078101544211156108765760405162461bcd60e51b8152602060048201526013602482015272159bdd1a5b99c81c195c9a5bd908195b991959606a1b604482015260640161052b565b33600090815260098201602052604090205460ff16156108c85760405162461bcd60e51b815260206004820152600d60248201526c105b1c9958591e481d9bdd1959609a1b604482015260640161052b565b600881015460ff16156109195760405162461bcd60e51b8152602060048201526019602482015278141c9bdc1bdcd85b08185b1c9958591e48195e1958dd5d1959603a1b604482015260640161052b565b6006546040516370a0823160e01b81523360048201526000916001600160a01b0316906370a0823190602401602060405180830381865afa158015610962573d6000803e3d6000fd5b505050506040513d601f19601f820116820180604052508101906109869190611246565b9050600081116109ca5760405162461bcd60e51b815260206004820152600f60248201526e2737903b37ba34b733903837bbb2b960891b604482015260640161052b565b3360009081526009830160205260409020805460ff191660011790558315610a0b5780826005016000828254610a009190611216565b90915550610a259050565b80826006016000828254610a1f9190611216565b90915550505b6040518415158152339086907ff2913dbe661ee2acc4a046d8fbcdc792373bda34c41c6086484b5345e5785e5f9060200160405180910390a3505061075660018055565b7fa49807205ce4d355092ef5a8a18f56e8913cf4a201fbe287825b095693c21775610a9381610ba9565b6104c260008051602061147583398151915283610731565b600082815260208190526040902060010154610ac681610ba9565b6107568383610c90565b600080516020611475833981519152610ae881610ba9565b60038054906000610af88361125f565b9091555050600354600081815260026020526040902090815560018101610b1f87826112c6565b5060028101610b2e86826112c6565b5060038101849055600480820180546001600160a01b0319166001600160a01b03861617905554610b5f9042611216565b60078201556003546040517ff5dc0da9afa6d080780a49fd8c680f03d2ddf3c067cd6d0c85360c096644d2d390610b999089908890611386565b60405180910390a2505050505050565b61072e8133610cf5565b600260015403610c055760405162461bcd60e51b815260206004820152601f60248201527f5265656e7472616e637947756172643a207265656e7472616e742063616c6c00604482015260640161052b565b6002600155565b610c1682826107d5565b6104c2576000828152602081815260408083206001600160a01b03851684529091529020805460ff19166001179055610c4c3390565b6001600160a01b0316816001600160a01b0316837f2f8788117e7eff1d82e926ec794901d17c78024a50270940304540a733656f0d60405160405180910390a45050565b610c9a82826107d5565b156104c2576000828152602081815260408083206001600160a01b0385168085529252808320805460ff1916905551339285917ff6391f5c32d9c69d2a47ea670b442974b53935d1edc7fd64eb21e047a839171b9190a45050565b610cff82826107d5565b6104c257610d0c81610d4e565b610d17836020610d60565b604051602001610d289291906113a8565b60408051601f198184030181529082905262461bcd60e51b825261052b9160040161141d565b606061047a6001600160a01b03831660145b60606000610d6f836002611430565b610d7a906002611216565b67ffffffffffffffff811115610d9257610d926110a5565b6040519080825280601f01601f191660200182016040528015610dbc576020820181803683370190505b509050600360fc1b81600081518110610dd757610dd7611447565b60200101906001600160f81b031916908160001a905350600f60fb1b81600181518110610e0657610e06611447565b60200101906001600160f81b031916908160001a9053506000610e2a846002611430565b610e35906001611216565b90505b6001811115610ead576f181899199a1a9b1b9c1cb0b131b232b360811b85600f1660108110610e6957610e69611447565b1a60f81b828281518110610e7f57610e7f611447565b60200101906001600160f81b031916908160001a90535060049490941c93610ea68161145d565b9050610e38565b508315610efc5760405162461bcd60e51b815260206004820181905260248201527f537472696e67733a20686578206c656e67746820696e73756666696369656e74604482015260640161052b565b9392505050565b600060208284031215610f1557600080fd5b5035919050565b60005b83811015610f37578181015183820152602001610f1f565b50506000910152565b60008151808452610f58816020860160208601610f1c565b601f01601f19169290920160200192915050565b60006101208b8352806020840152610f868184018c610f40565b90508281036040840152610f9a818b610f40565b606084019990995250506001600160a01b0395909516608086015260a085019390935260c084019190915260e08301521515610100909101529392505050565b600060208284031215610fec57600080fd5b81356001600160e01b031981168114610efc57600080fd5b80356001600160a01b038116811461101b57600080fd5b919050565b60006020828403121561103257600080fd5b610efc82611004565b6000806040838503121561104e57600080fd5b8235915061105e60208401611004565b90509250929050565b801515811461072e57600080fd5b6000806040838503121561108857600080fd5b82359150602083013561109a81611067565b809150509250929050565b634e487b7160e01b600052604160045260246000fd5b600082601f8301126110cc57600080fd5b813567ffffffffffffffff808211156110e7576110e76110a5565b604051601f8301601f19908116603f0116810190828211818310171561110f5761110f6110a5565b8160405283815286602085880101111561112857600080fd5b836020870160208301376000602085830101528094505050505092915050565b6000806000806080858703121561115e57600080fd5b843567ffffffffffffffff8082111561117657600080fd5b611182888389016110bb565b9550602087013591508082111561119857600080fd5b506111a5878288016110bb565b935050604085013591506111bb60608601611004565b905092959194509250565b600181811c908216806111da57607f821691505b6020821081036111fa57634e487b7160e01b600052602260045260246000fd5b50919050565b634e487b7160e01b600052601160045260246000fd5b8082018082111561047a5761047a611200565b60006020828403121561123b57600080fd5b8151610efc81611067565b60006020828403121561125857600080fd5b5051919050565b60006001820161127157611271611200565b5060010190565b601f82111561075657600081815260208120601f850160051c8101602086101561129f5750805b601f850160051c820191505b818110156112be578281556001016112ab565b505050505050565b815167ffffffffffffffff8111156112e0576112e06110a5565b6112f4816112ee84546111c6565b84611278565b602080601f83116001811461132957600084156113115750858301515b600019600386901b1c1916600185901b1785556112be565b600085815260208120601f198616915b8281101561135857888601518255948401946001909101908401611339565b50858210156113765787850151600019600388901b60f8161c191681555b5050505050600190811b01905550565b6040815260006113996040830185610f40565b90508260208301529392505050565b7f416363657373436f6e74726f6c3a206163636f756e74200000000000000000008152600083516113e0816017850160208801610f1c565b7001034b99036b4b9b9b4b733903937b6329607d1b6017918401918201528351611411816028840160208801610f1c565b01602801949350505050565b602081526000610efc6020830184610f40565b808202811582820484141761047a5761047a611200565b634e487b7160e01b600052603260045260246000fd5b60008161146c5761146c611200565b50600019019056fe829b824e2329e205435d941c9f13baf578548505283d29261236d8e6596d4636a26469706673582212204fbd861dbb27142e1144db5b3b5af6b7b4bc1ad824cd6bcd846ccd4c7174323264736f6c63430008110033",
  "linkReferences": {},
  "deployedLinkReferences": {}
}